:020000040800F2
:10000000002800207D0500080D0500080F050008E8
:100010001105000813050008150500080000000080
:1000200000000000000000000000000017050008AC
:1000300019050008000000001B0500081D05000848
:10004000C5050008C5050008C5050008C505000868
:10005000C5050008C5050008C5050008C505000858
:10006000C5050008C5050008C505000821050008EC
:10007000C5050008C5050008C5050008C505000838
:10008000C5050008C50500082D050008C5050008C0
:10009000C5050008C5050008C5050008C505000818
:1000A000C5050008C5050008C5050008C505000808
:1000B000C5050008C505000800000000C5050008CA
:1000C000C50500080000000000000000C50500088C
:1000D00000000000C5050008C5050008000000007C
:1000E000C5050008C5050008C5050008000000009A
:1000F0000000000000000000000000000000000000
:0C01000000000000000000005FF808F1A3
:10010C0010B5054C237833B9044B13B10448AFF345
:10011C0000800123237010BD70000020000000003F
:10012C00F421000808B5034B1BB103490348AFF396
:10013C00008008BD0000000074000020F4210008BD
:10014C00034613F8012B002AFBD1181A013870470B
:10015C000122014B1A7070478C00002030B595B00D
:10016C00202200210BA801F0AFFB142210240DEB70
:10017C000200002101F0A8FB2246002101A801F099
:10018C00A3FB01230225CDE90E344FF400230AA86A
:10019C0013930A95119500F095FF0F230024CDE9D8
:1001AC0005354FF48063214605A8CDE90743099432
:1001BC0001F04AF901A80195039401F001FA15B078
:1001CC0030BD000080B5674C8CB000F01BFAFFF717
:1001DC00C5FF1022002108A801F076FBA3690022BC
:1001EC0043F02003A361A3694FF4007103F02003D3
:1001FC000593059BA3695C4843F00403A361A369C1
:10020C00002503F004030693069BA369012643F023
:10021C000803A361A3694FF0020803F008030793D6
:10022C00079B00F049FF4FF400734F4808A9CDE934
:10023C000836CDE90A5800F06DFE63692A4633434F
:10024C0063616369294633400B200493049B00F0DF
:10025C000DFD0B20454C00F039FD454B0627236066
:10026C004FF48073A3604FF46023204626732575EA
:10027C00E3616560CDE908550A95276100F064FCDF
:10028C000723204608A90A93CDE9086600F08CFAEA
:10029C00204608A9CDE9088800F086FA03232046F9
:1002AC0008A9CDE9083300F07FFA0423204608A9F9
:1002BC00CDE9083300F078FA0523204608A9CDE9EA
:1002CC00083300F071FA204608A9CDE9087700F050
:1002DC006BFA4FF4E133274E27493046C6E9001339
:1002EC000C23C6E90255C6E905353561F56101F007
:1002FC0051FA2248FFF724FF41F2883382B21F499A
:10030C00304601F076FA204600F008FB1C4B2046E4
:10031C001A681C4900F064FB1A4C1B4E1B4D636998
:10032C0031460393236928460293E3680193A3683B
:10033C000093D4E9002301F0A7FA2846FFF700FF49
:10034C0041F2883382B229460A4801F052FA00225F
:10035C004FF40071044800F0AFFE00220C4B1A70F1
:10036C00DDE700BF00100240000C01402C02002011
:10037C0000240140A00100200038014004000020AE
:10038C0000000020880100200C2200088D000020B5
:10039C008C000020704700000E4B82B09A6942F02E
:1003AC0001029A619A6902F001020092009ADA69DC
:1003BC0042F08052DA61DB69074A03F08053019303
:1003CC00019B536823F0E06343F08063536002B0F9
:1003DC00704700BF001002400000014030B50546D8
:1003EC0087B01022002102A801F06EFA2A68224B75
:1003FC009A423ED103F56C439A69204842F400724C
:10040C009A619A6902A902F400720092009A9A69A0
:10041C001B4C42F004029A619B697E2203F0040398
:10042C000193019B0323CDE9022300F073FD00230C
:10043C0014498020C4E90013A3604FF400734FF4F7
:10044C00006CC4E903032023C4E905C34FF4005333
:10045C002046E36100F05CFC08B1FFF79BFF122023
:10046C002C6200220121656200F000FC122000F0D9
:10047C002DFC07B030BD00BF002401400008014036
:10048C00E80100200800024010B5044686B0102296
:10049C00002102A801F018FA2268174B9A4228D1C1
:1004AC0003F558439A69154842F480429A619A6957
:1004BC0002A902F480420092009A9A6942F0040266
:1004CC009A619B694FF4007203F004030193019B42
:1004DC000223CDE902230323059300F01BFD4FF407
:1004EC00806100230548CDE9021302A9049300F0B2
:1004FC0011FD06B010BD00BF0038014000080140DE
:10050C00FEE7FEE7FEE7FEE7FEE770477047704741
:10051C0000F08AB8014800F069BC00BFE801002077
:10052C00014800F0C1B800BF2C0200200B4A034662
:10053C00116810B509B90A491160106809490A4CCB
:10054C000344091B8B4206D901F0C6F90C23036046
:10055C004FF0FF3010BD1360FCE700BF5C020020C1
:10056C00B0030020002800200004000070470000A9
:10057C00FFF7FCFF0B480C490C4A002302E0D4584F
:10058C00C4500433C4188C42F9D3094A094C0023D3
:10059C0001E013600432A242FBD301F0A3F9FFF790
:1005AC0011FE70470000002070000020AC220008F3
:1005BC0070000020AC030020FEE7000038B50E4BA5
:1005CC0005461A784FF47A73B3FBF2F30B4A1068B2
:1005DC00B0FBF3F000F088FB044658B90F2D09D896
:1005EC00024629464FF0FF3000F040FB2046044BFA
:1005FC001D6038BD0120FCE718000020140000200D
:10060C001C000020074A08B51368032043F01003B0
:10061C00136000F019FB0F20FFF7D0FFFFF7BCFEB3
:10062C00002008BD00200240034A044B11681B78CF
:10063C000B441360704700BF6002002018000020BC
:10064C00014B1868704700BF60020020436A10B568
:10065C009A6A12F0500F1BD19A6A42F400729A6295
:10066C001A68926802F46022B2F5602F0CD11A7BE2
:10067C0052B99A6A22F480729A629A6AD2045EBF64
:10068C009A6A42F001029A621846FFF761FD10BDAA
:10069C001B6ABDE810401B6B1847704708B5406AD1
:1006AC00FFF7FBFF08BD7047036870B51D685E68F7
:1006BC000446B00626D5A90724D5A26AD2065EBF89
:1006CC00A26A42F40072A2629A6802F46022B2F545
:1006DC00602F10D1227B72B95A6822F020025A6026
:1006EC00A36A23F48073A362A36AD8045EBFA36ACF
:1006FC0043F00103A3622046FFF72AFD6FF01202BC
:10070C0023681A60310630D56A072ED5A36ADB063A
:10071C005EBFA36A43F40053A36223689A6802F491
:10072C00E042B2F5E04F0AD05A68500516D49A68E8
:10073C0002F46022B2F5602F10D1227B72B95A6894
:10074C0022F080025A60A36A23F48053A362A36A46
:10075C00D9055EBFA36A43F00103A362204600F0F3
:10076C0071FA6FF00C0223681A6072060CD5EB0755
:10077C000AD5A36A204643F48033A362FFF793FFA4
:10078C006FF0010223681A6070BD7047406A08B5AB
:10079C00836A43F040038362C36A43F00403C36279
:1007AC00FFF7F3FF08BD0000002373B5019390F829
:1007BC0024300446012B6CD0012380F824304D6882
:1007CC000268062D086805EB850322D81F26556B99
:1007DC00053B9E4025EA060500FA03F32B435363C1
:1007EC0009288B6800EB40054FF0070129D9D66822
:1007FC001E3DA94026EA0101AB400B43D360A0F19A
:10080C001003012B25D90020002384F8243002B0DA
:10081C0070BD0C2D4FF01F0509D8166B233B9D4066
:10082C0026EA050500FA03F32B431363D8E7D66ACF
:10083C00413B9D4026EA050500FA03F32B43D362A6
:10084C00CEE71069A94020EA0101AB400B431361CC
:10085C00D9E7114B9A4216D193681B02D3D49368F3
:10086C00102843F400039360CDD10C4B0C4A1B6849
:10087C00B3FBF2F30A2253430193019B002BC2D02A
:10088C00019B013BF8E7A36A012043F02003A3621C
:10089C00BAE70220BBE700BF00240140140000208F
:1008AC0040420F00002337B50193036804469A6851
:1008BC00D20702D5002003B030BD9A6842F0010285
:1008CC009A60144B144A1B68B3FBF2F30193019B1F
:1008DC00E3B9FFF7B5FE054623689B68DB07E9D44F
:1008EC00FFF7AEFE401B0228F6D923689B6813F075
:1008FC000103F1D1A26A012042F01002A262E26A65
:10090C0084F8243042F00102E262D4E7019B013BFF
:10091C00DCE700BF1400002040420F0010B590F837
:10092C0024300446012B54D0012380F82430FFF7E7
:10093C00B9FF002849D1A36A274A23F4407323F056
:10094C00010343F48073A3622368934204D12349C7
:10095C004A6812F4702F2ED1A26A22F48012A2627D
:10096C005A68520541BFA26A22F4405242F48052A6
:10097C00A262A26A12F480521CBFE26A22F0060242
:10098C00E262002284F824206FF002021A609A6856
:10099C0002F46022B2F5602F13D10F4A934205D1B5
:1009AC00A2F58062526812F4702F0AD19A6842F450
:1009BC00A0029A6010BDA26A42F48012A2624A6838
:1009CC00CFE79A6842F48012F3E7002384F82430CE
:1009DC00F0E70220EEE700BF0028014000240140B0
:1009EC002DE9F041404B9046026804469A420F466E
:1009FC0002D03E498A4203D15B6813F4702F6ED14A
:100A0C0094F82430012B6CD00123204684F8243038
:100A1C00FFF748FF064600285DD1A56A2168334BD5
:100A2C0025F4706525F0010545F480759942A562A1
:100A3C0004D12D4A536813F4702F3ED1A36A23F4CA
:100A4C008013A3624B685A0505D5A36A23F440535F
:100A5C0043F48053A362A36A206A13F4805318BF33
:100A6C00E36A3A4618BF23F00603E362002384F8D6
:100A7C0024301F4B4C3183621E4BC3621E4B0363ED
:100A8C006FF0020341F84C3C51F8443C43F4807342
:100A9C0041F8443C434600F06DF923689A6802F42F
:100AAC006022B2F5602F9A680CBF42F4A00242F4A7
:100ABC0080129A603046BDE8F081A36A43F480133B
:100ACC00A36253685B0541BFA06A20F4405040F418
:100ADC008050A062BFE7002384F82430EAE70126A7
:100AEC00E8E70226E6E700BF0024014000280140A9
:100AFC0059060008A90600089907000838B50368CC
:100B0C0004469A68D10701D4002038BD9A6822F0B7
:100B1C0001029A60FFF794FD054623689B68DB078A
:100B2C00F2D5FFF78DFD401B0228F6D923689B6890
:100B3C00DA07F2D5A36A012043F01003A362E36A3B
:100B4C0043F00103E362E0E7F8B5044600286DD0FA
:100B5C00836A23B9C36280F82430FFF73FFC204638
:100B6C00FFF7CCFFA36A13F0100361D100285FD10B
:100B7C00A26A616822F4885222F0020242F0020258
:100B8C00E569A668A262227B2943B6F5807F41EA1B
:100B9C00420136D0771E7D427D412D02277D012FEB
:100BAC0006D182BBA269013A45EA423242F40065A1
:100BBC002268B6F5807F576827F4694745EA070530
:100BCC00556097681D4D05EA070545EA01059560D6
:100BDC0001D0012E02D12369013B1B05D56A25F4F6
:100BEC0070052B43D3629268154B1340994213D175
:100BFC000023E362A36A23F0030343F00103A3621F
:100C0C00F8BD3546CAE7A26A42F02002A262E26A47
:100C1C0042F00102E262CBE7A36A23F0120343F035
:100C2C001003A362E36A43F00103E3620120E7E7E8
:100C3C00A36A43F01003A362F8E700BFFDF7E1FFDE
:100C4C00FE0E1FFF7047000007490302CA6803F439
:100C5C00E06322F4E0621204120C134343F0BF630E
:100C6C0043F40033CB60704700ED00E0154B30B51A
:100C7C00DC68C4F30224C4F10703251D042B28BF30
:100C8C000423062D4FF0FF3594BF0024033C05FAD6
:100C9C0003F321EA0303A54022EA0502A34000283E
:100CAC0043EA0203ACBF00F16040074A4FEA03136A
:100CBC00DBB2ABBF00F5614000F00F0080F80033F1
:100CCC00135430BD00ED00E014ED00E0002807DB0C
:100CDC0001234109034A00F01F00834042F82130F0
:100CEC00704700BF00E100E00138B0F1807F0BD20B
:100CFC004FF0E023F021054A586182F823100020C0
:100D0C00072298611A6170470120704700ED00E0DE
:100D1C00034610B540B314210068144A0244B2FBD8
:100D2C00F1F292001A64124ADA63022283F821204B
:100D3C00D3E901242243DC68016822431C6921F4B5
:100D4C007F5122435C6921F0300122439C6922438C
:100D5C00DC6922430A43026000200122986383F875
:100D6C00200083F8212010BD0120FCE7F8FFFDBF17
:100D7C0000000240F0B590F82040012C34D0012442
:100D8C0080F8204090F82140012CE5B24FF000048F
:100D9C0028D1022680F8216084630468266826F036
:100DAC0001062660D0E90F67BD407560636043683B
:100DBC00102BC36A0BBFA260A160E160E2604BB173
:100DCC00236843F00E0300202360236843F00103E3
:100DDC002360F0BD236823F004032360236843F0F1
:100DEC000A03F0E780F820400220F2E770B40425F3
:100DFC00C66B026C3468036895402542196832D082
:100E0C004D0730D51A6896065EBF1A6822F00402A8
:100E1C001A603E4A934219D01432934218D01432BD
:100E2C00934217D01432934217D01432934217D0F6
:100E3C001432934214BF4FF080634FF48003344A52
:100E4C005360C36A002B5ED070BC18470423F6E7CE
:100E5C004023F4E74FF48063F1E74FF48043EEE76F
:100E6C004FF48023EBE702259540254235D08D07C2
:100E7C0033D51A68940606D41A6822F00A021A604E
:100E8C00012280F82120214A934219D01432934236
:100E9C0018D01432934217D01432934217D0143214
:100EAC00934217D01432934214BF4FF000734FF497
:100EBC000013174A5360002380F82030836AC1E77F
:100ECC000223F6E72023F4E74FF40073F1E74FF425
:100EDC000053EEE74FF40033EBE70825954025422D
:100EEC0011D009070FD5196821F00E0119600123E3
:100EFC0003FA02F27260836380F82130002380F8D9
:100F0C002030036B9EE770BC704700BF08000240A6
:100F1C00000002402DE9F74F00221646DFF87CC195
:100F2C005F4BDFF880E1DFF880810D6835FA06F45D
:100F3C0002D103B0BDE8F08F0127B74005EA0704E2
:100F4C0037EA050575D14D68032D06D8013D022DF4
:100F5C007ED8DFE805F08F949A00122D00F0928075
:100F6C0069D8112D00F08880FF2C98BF81464FF076
:100F7C000F0B88BF00F104094FEA8605D9F8007001
:100F8C0088BF203D0BFA05FA27EA0A0702FA05F595
:100F9C002F43C9F80070D1F8049019F0805F48D045
:100FAC00DCF8185026F0030745F00105CCF8185072
:100FBC00DCF8185007F1804705F00105019507F59D
:100FCC00803706F0030A019D4FEA8A0ABD680BFAC6
:100FDC000AFB25EA0B0B354DA8425AD005F5806566
:100FEC00A84258D005F58065A84214BF03250225F8
:100FFC0005FA0AF545EA0B05BD609D6819F4801FDA
:10100C0014BF2543A5439D60DD6819F4001F14BF70
:10101C002543A543DD605D6819F4003F14BF2543EB
:10102C00A5435D601D6819F4803F14BF2543A5439B
:10103C001D60013679E7DFF878904D4508D011D85E
:10104C00A9F580194D4503D0754501D045458BD187
:10105C008A68E2B1012A08BF07614FF0080218BF85
:10106C00476181E7DFF84C904D45F1D009F58039A7
:10107C004D45ECE7CA6877E7CA68043274E7CA687A
:10108C00083271E7CA680C326EE700226CE7042262
:10109C006AE70025ACE70125AAE700BF0010024073
:1010AC000004014000002110000011100008014054
:1010BC0000002210000031100AB1016170470904D0
:1010CC00FBE700002DE9F341054638B30368DB0765
:1010DC0010D42B689F075ED42B68190700F19580FC
:1010EC002B685A0700F1C180EB69002B40F02C8172
:1010FC00002029E0904C636803F00C03042B07D00C
:10110C00636803F00C03082B0AD16368DE0307D570
:10111C0023689C03DDD56B68002BDAD1012013E02A
:10112C006B68B3F5803F12D1236843F4803323609E
:10113C00FFF786FA064623689803CAD4FFF780FAAD
:10114C00801B6428F7D9032002B0BDE8F0819BB95D
:10115C00236823F480332360236823F480232360E3
:10116C00FFF76EFA064623689903B2D5FFF768FAC3
:10117C00801B6428F7D9E6E7B3F5A02F236803D1C9
:10118C0043F480232360CFE723F480332360236868
:10119C0023F48023CBE7684C636813F00C0F07D063
:1011AC00636803F00C03082B10D16368DA030DD4C9
:1011BC0023689B0702D52B69012BAFD123686A6981
:1011CC0023F0F80343EAC203236085E72A695B4BEB
:1011DC006AB101221A60FFF733FA064623689F07AB
:1011EC00ECD4FFF72DFA801B0228F7D9ABE71A6075
:1011FC00FFF726FA0646236898077FF56DAFFFF7D1
:10120C001FFA801B0228F6D99DE7AA694A4E4B4B60
:10121C00E2B10122C3F88024FFF712FA0446736A84
:10122C009B070DD54FF4FA52454B1B68B3FBF2F3F9
:10123C00019300BF019B5A1E0192002BF9D14FE77D
:10124C00FFF7FEF9001B0228E9D97CE7C3F88024DC
:10125C00FFF7F6F90446736A9F077FF541AFFFF776
:10126C00EFF9001B0228F6D96DE7334CE369D8007F
:10127C0024D40127E36943F08053E361E36903F06D
:10128C0080530093009B2F4E3368D90518D5EB681B
:10129C00012B26D1236A43F001032362FFF7D0F917
:1012AC0041F288380646236A9B073FD5002F3FF44E
:1012BC001BAFE36923F08053E36115E70027E2E7F6
:1012CC00336843F480733360FFF7BAF980463368B0
:1012DC00DA05DCD4FFF7B4F9A0EB08006428F6D9E2
:1012EC0031E7ABB9236A41F2883823F0010323625A
:1012FC00236A23F004032362FFF7A2F90646236A4C
:10130C009807D3D5FFF79CF9801B4045F7D91AE70E
:10131C00052B236A03D143F004032362BAE723F0BD
:10132C0001032362236A23F00403B6E7FFF788F96D
:10133C00801B4045B7D906E700100240000042422E
:10134C0014000020007000402A4C626802F00C026D
:10135C00082A3ED00022022B274B1A662CD1FFF70D
:10136C006FF906462368990120D42B6AB3F5803FA8
:10137C0005D16268A96822F400320A436260696A86
:10138C0062680B4322F474121343012263601A4BFC
:10139C001A66FFF755F9054623689A013FF5A8AE82
:1013AC00FFF74EF9401B0228F6D9CCE6FFF748F9B7
:1013BC00801B0228D6D9C6E6FFF742F905462368FA
:1013CC009B017FF595AEFFF73BF9401B0228F6D940
:1013DC00B9E6012B3FF4A2AE60682B6A00F48032B0
:1013EC009A427FF49BAE6B6A00F47010C01A18BF5F
:1013FC000120A9E600100240000042420D4A536849
:10140C0003F00C01082912D10B48C3F38341DB0311
:10141C00405C09D55368094AC3F340435043084A1A
:10142C00D35CB0FBF3F07047064B5843704703484E
:10143C00704700BF001002405922000800127A00C9
:10144C005722000800093D002DE9F0410D460446E5
:10145C0010B90120BDE8F081444A136803F007037A
:10146C008B4228D321688E0730D4CA0743D43F4A15
:10147C00136803F00703AB4265D822683C4D12F0A9
:10148C00040F6CD1130706D56B68226923F46053E3
:10149C0043EAC2036B60FFF7B1FF6B68354AC3F3D5
:1014AC000313D35CD840344B1860344B1868FFF7E7
:1014BC0085F80020CEE7136823F007030B43136075
:1014CC00136803F007038B42C3D1CBE7284B11F011
:1014DC00040F1EBF5A6842F4E0625A60080742BF0C
:1014EC005A6842F460525A605A68A06822F0F002BE
:1014FC0002435A60B9E762681D4E012A33681AD15B
:10150C0013F4003FA5D0736841F2883823F003032D
:10151C0013437360FFF794F807467368626803F02F
:10152C000C03B3EB820FA2D0FFF78AF8C01B404527
:10153C00F3D903208EE7022A02D113F0007FE1E7F2
:10154C0013F0020FDEE7136823F007032B4313603D
:10155C00136803F00703AB427FF47BAF8DE76B6836
:10156C00E16823F4E0630B436B608BE700200240DF
:10157C000010024047220008140000201C0000202C
:10158C00044B054A5B68C3F30223D35C034A10681F
:10159C00D8407047001002403F2200081400002081
:1015AC00044B054A5B68C3F3C223D35C034A10683F
:1015BC00D8407047001002403F2200081400002061
:1015CC0003682DE9F3410546D80721D5364CE3696C
:1015DC00D9002BD40126E36943F08053E361E3691E
:1015EC0003F080530193019B304F3B68DA051FD504
:1015FC00236A6A6813F440732ED1236A6A6823F451
:10160C004073134323621EB1E36923F08053E361FB
:10161C002A68910706D52449A8684B6823F44043EF
:10162C0003434B60D30636D4002012E00026DBE7E0
:10163C003B6843F480733B60FFF702F880463B68DD
:10164C00DB05D5D4FEF7FCFFA0EB08006428F6D927
:10165C00032002B0BDE8F08102F440729A42CCD073
:10166C000120134A236AC2F84004002023F440717D
:10167C00DF07C2F840042162BFD5FEF7E1FF41F25B
:10168C0088380746236A9807B7D4FEF7D9FFC01BE2
:10169C004045F7D9DCE7044AE968536823F4800332
:1016AC000B435360C0E700BF0010024000700040C5
:1016BC000000424210B504460368C1681A6922F45E
:1016CC0040520A431A6182680069D9680243606912
:1016DC0021F4B05121F00C0102430A43DA605A693B
:1016EC00A16922F440720A435A610E4A934215D101
:1016FC00FFF756FF19234343626820689200B3FB3F
:10170C00F2F36422B3FBF2F102FB11331B0132330F
:10171C00B3FBF2F303EB0113836010BDFFF730FF53
:10172C00E8E700BF00380140F8B504460E461746FE
:10173C001D462268136836EA030301D1002028E015
:10174C006B1CF7D025B1FEF77BFFC01B8542F0D296
:10175C00226802F10C0353E8003F23F4D0730C32DF
:10176C0042E8003021680028F2D101F1140353E85B
:10177C00003F23F0010301F1140040E80032002A7D
:10178C00F3D12023032084F8413084F8402084F8DE
:10179C004230F8BD10B5044648B390F8413003F020
:1017AC00FF021BB980F84020FEF76EFE242322684E
:1017BC0084F84130D368204623F40053D360FFF7FC
:1017CC0079FF236800201A6922F490421A615A6941
:1017DC0022F02A025A61DA6842F40052DA602023BD
:1017EC00606484F8413084F84230606310BD01209D
:1017FC00FCE72DE9F843984690F841300446202B3D
:10180C000E4617463CD100293CD0002A3AD0212361
:10181C000025456480F84130FEF712FFA36881462D
:10182C00B3F5805FA784E78403D123690BB93546F0
:10183C001E46E38C9BB253B943464A464021204690
:10184C00FFF772FF50B9202384F8413007E043467C
:10185C004A4680212046FFF767FF10B10320BDE800
:10186C00F88322684EB935F8023BC3F30803536082
:10187C00E18C013989B2E184DBE716F8013BF6E72C
:10188C000220ECE70120EAE70EB46FF0004100B54E
:10189C009CB01DAB02900690079104910848094931
:1018AC0053F8042B0591006802A9019300F092F9FA
:1018BC000022029B1A701CB05DF804EB03B0704759
:1018CC00200000200802FFFF03460244934200D18F
:1018DC00704703F8011BF9E7014B1868704700BF0C
:1018EC002000002070B500260C4D0D4C641BA4107C
:1018FC00A64209D100F078FC00260A4D0A4C641B64
:10190C00A410A64205D170BD55F8043B984701368A
:10191C00EEE755F8043B98470136F2E7A42200089D
:10192C00A4220008A4220008A822000870477047CF
:10193C0038B50546002940D051F8043C0C1F002B4B
:10194C00B8BFE41800F0DEF81C4A136833B96360C2
:10195C0014602846BDE8384000F0DAB8A34208D934
:10196C00206821188B4201BF19685B680918216037
:10197C00EDE71A465B680BB1A342FAD9116850180F
:10198C00A0420BD120680144501883421160E0D171
:10199C0018685B68084410605360DAE702D90C23BE
:1019AC002B60D6E7206821188B4201BF19685B6851
:1019BC000918216063605460CBE738BDA803002090
:1019CC0070B50F4E0C463168054611B900F0AAFBF4
:1019DC0030602146284600F0A5FB431C03D14FF094
:1019EC00FF34204670BDC41C24F00304A042F8D080
:1019FC00211A284600F096FB0130F2D1EFE700BF28
:101A0C00A40300202DE9F843CD1C25F0030508356F
:101A1C000C2D38BF0C25002D064601DBA94204D93C
:101A2C000C2333600020BDE8F883DFF8D48000F08D
:101A3C0069F8D8F800301C4644BB29463046FFF7FD
:101A4C00BFFF431C044658D1D8F800402746002F4E
:101A5C0043D1002C4BD023683946304604EB0309A4
:101A6C0000F060FB814542D1216830466D1A294651
:101A7C00FFF7A6FF01303AD023682B442360D8F837
:101A8C0000305A6862BBC8F800700FE02268521B25
:101A9C0020D40B2A17D96119A342256018BF5960AD
:101AAC00636808BFC8F8001062514B60304600F004
:101ABC002FF804F10B00231D20F00700C21A1CBFE5
:101ACC001B1AA350AFE76268A3420CBFC8F80020F2
:101ADC005A60EBE723466468AEE73C467F68B6E79E
:101AEC001A465B68A342FBD100235360DEE70C234C
:101AFC003046336000F00CF894E70560D6E700BF81
:101B0C00A80300200148FFF711BF00BFA00300206D
:101B1C000148FFF70CBF00BFA00300202DE9F047E0
:101B2C001F468E688246BE420C4690460B682DD8E6
:101B3C00B1F90C2012F4906F26D06569096905EB98
:101B4C004505A3EB010905EBD5757B1C4B446D10CA
:101B5C009D4238BF1D46530527D52946FFF752FF36
:101B6C00064660B34A46216900F0FAFAA38923F4C9
:101B7C00906343F08003A38126614E4426603E4669
:101B8C006561A5EB0905A560BE4200D93E4632460B
:101B9C004146206800F0ACFA0020A3689B1BA360B0
:101BAC00236833442360BDE8F0872A4600F0E6FA48
:101BBC0006460028E0D150462169FFF7B9FE0C23F8
:101BCC00CAF80030A3894FF0FF3043F04003A381E3
:101BDC00E9E700002DE9F04F98468B8907461B0674
:101BEC000D4614469DB010D50B6973B94021FFF713
:101BFC0009FF2860286130B90C233B604FF0FF309F
:101C0C001DB0BDE8F08F40236B61002309932023A6
:101C1C008DF8293030234FF00109CDF80C80DFF816
:101C2C0098818DF82A3023469A4613F8012B0AB175
:101C3C00252AF9D1BAEB040B0BD05B462246294678
:101C4C003846FFF76BFF013000F0A780099A5A4421
:101C5C0009929AF80030002B00F09F8000234FF07F
:101C6C00FF32CDE905230AF1010A049307938DF89D
:101C7C0053301A935446052214F8011B4E4800F0B9
:101C8C0061FA049AD8B9D00644BF20238DF853309A
:101C9C00110744BF2B238DF853309AF800302A2BB0
:101CAC0015D0544600204FF00A0C079A214611F823
:101CBC00013B303B092B4BD9B0B1079214E0A0EBA0
:101CCC00080309FA03F31343A2460493D2E7039BD8
:101CDC00191D1B680391002BBBBF5B4242F0020233
:101CEC0007930793B8BF049223782E2B0AD16378FD
:101CFC002A2B32D1039B02341A1D1B68039243EA30
:101D0C00E3730593DFF8B4A003225046217800F06A
:101D1C0019FA38B14022049BA0EB0A00824013430D
:101D2C000134049314F8011B062225488DF8281061
:101D3C0000F008FA002836D0224B1BBB039B07335C
:101D4C0023F0070308330393099B334409936AE791
:101D5C000C4601200CFB0232A8E700234FF00A0CC2
:101D6C00194601340593204610F8012B303A092A04
:101D7C0003D9002BC6D00591C4E7044601230CFB04
:101D8C000121F0E703AB00932A4638460E4B04A919
:101D9C00AFF30080421C0646D6D1AB895B063FF5FB
:101DAC002DAF09982CE703AB00932A463846064B17
:101DBC0004A900F07DF8EDE7692200086F22000805
:101DCC007322000800000000291B00082DE9F047D1
:101DDC00164698468A680B6907469342B8BF134665
:101DEC00336091F843200C46DDF820900AB10133A2
:101DFC0033602368990642BF336802333360256829
:101E0C0015F0060506D104F1190AE36832689B1A2D
:101E1C00AB422BDC94F843302268003B18BF012303
:101E2C00920630D44146384604F14302C84701308B
:101E3C0023D02368226903F00603042B14BF00256A
:101E4C0033684FF0000608BFE56804F11A0408BFB8
:101E5C00ED1A54F8123C08BF25EAE5759342C4BF4D
:101E6C009B1AED18B5421AD1002008E00123524606
:101E7C0041463846C847013003D14FF0FF30BDE82A
:101E8C00F0870135C1E73020E11881F843005A1C76
:101E9C0094F845102244023382F84310C2E7012320
:101EAC00224641463846C8470130E6D00136D9E7CC
:101EBC002DE9FF470F7E9146782F80460C469A46B7
:101ECC000C9E01F1430207D8622F0AD8002F00F0B4
:101EDC00D380582F00F0BA8004F1420684F8427087
:101EEC003AE0A7F16303152BF6D801A151F823F0C2
:101EFC00551F0008691F0008E51E0008E51E0008B4
:101F0C00E51E0008E51E0008691F0008E51E000814
:101F1C00E51E0008E51E0008E51E00086B20000801
:101F2C00931F000825200008E51E0008E51E000888
:101F3C008D200008E51E0008931F0008E51E000810
:101F4C00E51E00082D20000833681A1D1B6832603E
:101F5C0004F1420684F8423001239EE03368206885
:101F6C00191D3160060601D51D6803E04506FBD539
:101F7C00B3F90050002D03DA2D236D4284F8433061
:101F8C000A23594811E021683368080653F8045BAA
:101F9C0002D4490648BFADB26F2F336014BF0A2379
:101FAC0008235148002184F843106668002EA8BF0E
:101FBC002168A660A4BF21F0040121600DB9002E98
:101FCC004BD01646B5FBF3F103FB1157C75D06F872
:101FDC00017D2F46BB420D46F4D9082B0BD123684B
:101FEC00DF0708D5236961689942DEBF302306F804
:101FFC00013C06F1FF36921B22614B4621464046BE
:10200C00CDF800A003AAFFF7E1FE01304AD14FF052
:10201C00FF3004B0BDE8F087236843F02003236051
:10202C007827324884F84570236831681F0651F8C8
:10203C00045B02D45F0648BFADB23160D90744BF20
:10204C0043F0200323601DB11023ABE72648E9E7DA
:10205C00236823F020032360F6E71646BDE73368B8
:10206C002568181D616930602E061B6801D5196042
:10207C0002E06806FBD51980002316462361BCE7F5
:10208C00336800211A1D32601E686268304600F009
:10209C0059F808B1801B606063682361002384F8E1
:1020AC004330AAE73246494640462369D0470130BF
:1020BC00ADD023689B0713D4E068039B9842B8BF4C
:1020CC001846A6E70123324649464046D047013020
:1020DC009DD00135E36803995B1AAB42F2DCEBE768
:1020EC00002504F11906F5E77A2200088B22000876
:1020FC00884210B501EB020402D98442234607D86A
:10210C00431EA14208D011F8012B03F8012FF8E768
:10211C00014602448A4200D110BD13F8014D02F869
:10212C00014DF7E738B50023054D044608462B60F2
:10213C00FEF7FCF9431C02D12B6803B1236038BDB8
:10214C009C030020034610B5C9B2024493421846C2
:10215C0001D1002003E0047801338C42F6D110BD8C
:10216C000A44914200F1FF3300D1704710B511F8C9
:10217C00014B914203F8014FF9D110BD2DE9F0410B
:10218C00804615460C4621B91146BDE8F041FFF7D3
:10219C0039BC2AB9FFF7CCFB00242046BDE8F081FE
:1021AC0000F01AF88542064602D8B5EB500FF4D869
:1021BC0029464046FFF726FC07460028ECD0B542DE
:1021CC002A46214628BF3246FFF7CAFF2146404621
:1021DC00FFF7AEFB3C46E0E751F8043C181F002B20
:1021EC00BCBF0B58C0187047F8B500BFF8BC08BC92
:1021FC009E467047F8B500BFF8BC08BC9E467047B9
:10220C0054313D256C64092054323D256C64092001
:10221C0054333D256C6409202054343D256C6409ED
:10222C00202056313D256C64092056323D256C64C6
:10223C000D0A000000000001020304000000000071
:10224C00000000010203040607080901020203044E
:10225C0005060708090A0B0C0D0E0F1010232D3064
:10226C002B2000686C4C0065666745464700303192
:10227C0032333435363738394142434445460030E1
:10228C003132333435363738396162636465660010
:08229C00B0DEFF7F010000002D
:0422A40031010008FC
:0422A8000D0100081C
:1022AC00060000002048656C6C6F20776F726C64C0
:1022BC00000000000024F4000100000010000000E9
:1022CC00240000200000000064020020CC0200204A
:1022DC00340300200000000000000000000000009B
:1022EC0000000000000000000000000000000000E2
:1022FC0000000000000000000000000000000000D2
:10230C0000000000000000000000000000000000C1
:040000050800057D6D
:00000001FF
